:100000000C9462000C94EC0F0C948A000C948A00FF
:100010000C948A000C948A000C948A000C948A0038
:100020000C948A000C948A000C948A000C94F40FAF
:100030000C948A000C948A000C948A000C948A0018
:100040000C948B060C948A000C94E9090C941B0AFE
:100050000C948A000C948A000C948A000C948A00F8
:100060000C948A000C948A00000000080002010031
:100070000003040700000000000000000102040863
:100080001020408001020408102001020408102002
:10009000040404040404040402020202020203032E
:1000A00003030303000000002300260029000000D2
:1000B0000000250028002B0000000000240027007D
:1000C0002A004B0A11241FBECFEFD8E0DEBFCDBF00
:1000D00012E0A0E0B1E0E6E1FFE202C005900D927F
:1000E000AC3CB107D9F724E0ACECB2E001C01D9202
:1000F000AC3BB207E1F710E0C2E6D0E004C02197C4
:10010000FE010E94A214C136D107C9F70E943E0128
:100110000C9489170C94E80F2F923F924F925F92A4
:100120006F927F928F929F92AF92BF92CF92DF9207
:10013000EF92FF920F931F93CF93DF93E42FF52F4E
:10014000419050804F925F92E42FF52F4DB65EB6EE
:10015000419250820C94AC00E62FF72F41905080D2
:100160004DBE5EBE5F904F90E62FF72F41925082BA
:10017000DF91CF911F910F91FF90EF90DF90CF9083
:10018000BF90AF909F908F907F906F905F904F90B7
:100190003F902F900C943E0DE62FF72F4191508108
:1001A0004DBF5EBF0C943F0D2F923F924F925F92D6
:1001B0006F927F928F929F92AF92BF92CF92DF9277
:1001C000EF92FF920F931F93CF93DF93E42FF52FBE
:1001D000419050804F925F92E42FF52F4DB65EB65E
:1001E000419250820C94CC00E82FF92F419150811C
:1001F0004DBF5EBFE62FF72F099400000F931F93AA
:10020000CF93DF9300D0CDB7DEB78DB79EB79A837B
:1002100089838091CC029091CD02892BA9F48981A8
:100220009A819093CD028093CC02F8948AEE98E064
:10023000892B11F00E94EA0878940F900F90DF91BB
:10024000CF911F910F9108952091CC023091CD0252
:1002500089819A812817390741F361E08DE00E9476
:10026000DE07F89483E691E00E94ED010AEE18E0C3
:1002700001151105E9F30E94EA08FACF0E943E0732
:100280008091CE020E94B80A90E080E00895EF923B
:10029000FF920F931F93CF93C0E08FE7E82E81E08A
:1002A000F82E07E811E060E08C2F0E94ED02FF922B
:1002B000EF920E945A0361E08C2F0E94ED021F937F
:1002C0000F930E945A0360E375E780E090E00E947C
:1002D000FA060E94EA02CF5F0F900F900F900F90E6
:1002E000C03109F7CF911F910F91FF90EF900895C2
:1002F00082E00E940C08892B31F581E08093CE02C8
:100300008091CE02811122C060E00E94ED0280E95E
:1003100091E09F938F930E945A0361E080E00E94D6
:10032000ED028DE991E09F938F930E945A030F9005
:100330000F900F900F9060E47DE083E090E00E94CA
:10034000FA060C94EA021092CE02DACF813099F7C5
:1003500060E080E00E94ED0280E991E09F938F933E
:100360000E945A0361E080E00E94ED0288EA91E079
:10037000DACF61E08DE00E94A20760E08DE00E948C
:10038000DE0760E083E10E94A20760E082E00E9455
:10039000A20740E062E080E10E94AD040E944701B4
:1003A0000E94780160E080E00E94ED028EEA91E018
:1003B0009F938F930E945A03E9E6F0E08081826068
:1003C0008083E89A0F900F9026E040E052EC61E0C5
:1003D00070E08DE093E00C948709F894FC010190A3
:1003E0000020E9F73197AF01481B590BBC018DE0A4
:1003F00093E00E94780A78940895CF92DF92EF926A
:10040000FF926B017C010E94D5066093DC02709321
:10041000DD028093DE029093DF02C092D802D09278
:10042000D902E092DA02F092DB02FF90EF90DF90C7
:10043000CF90089587E08093D7028CE08093D50217
:100440008FEF8093D6029BE09093D4029AE0909332
:10045000D30299E09093D20298E09093D1028093D6
:10046000D0028093CF020895682F8091D0028F3FF1
:1004700089F19091CF029E3F51F4662331F060E004
:100480000E94A20790E080E0089561E0F9CF8330F8
:1004900041F02BEF280F223020F027EF280F2330D8
:1004A00068F470E0913019F40E945008EBCF2FEF00
:1004B00030E0A901461B570BBA01F6CF662331F095
:1004C000913031F461E00E94DE07DCCF9923D1F353
:1004D00060E0F9CF8DEF9FEF08958FEF0C94340219
:1004E000CF93C82F8091D40261E0C0FF60E00E94EA
:1004F000DE078091D30261E0C1FF60E00E94DE0769
:100500008091D20261E0C2FF60E00E94DE0780912C
:10051000D10261E0C3FF60E0CF910C94DE0761E09F
:100520008091D5020E94DE0781E090E00E943307AF
:1005300060E08091D5020C94DE070F931F93CF9358
:100540008C01C62F8091D70261E00130110509F0BE
:1005500060E00E94DE078C2F82958F700E947002EF
:100560000E948F020230110531F08C2F8F700E9493
:1005700070020E948F0290E080E0CF911F910F9156
:1005800008950F931F93CF93C82F682F90E080E0BA
:100590000E949D028C01C150C23098F41092EA0270
:1005A0001092E9026091E4027091E5028091E60206
:1005B0009091E7020E94FD01C801CF911F910F9118
:1005C00008956091E0027091E1028091E2029091C1
:1005D000E302F0CF81E00C94C1029091EF02691721
:1005E00010F06FEF690F2091E802222371F0209143
:1005F000F002821730F0821B6F5F6917D0F360E062
:10060000F8CF8093EA026093E902E62FF0E0E5512B
:10061000FD4F9081890F80680C94C1028091F20295
:10062000982F94609093F2028C600C94C102CF9347
:10063000DF93682F81E090E00E949D02EC016091C1
:10064000E0027091E1028091E2029091E3020E9447
:10065000FD0181E090E0CD2B11F090E080E0DF9192
:10066000CF910895CF93DF930E941703EC018091FF
:10067000E8028823D9F08091EA028F5F8093EA0232
:100680009091F002891790F01092EA028091E902AD
:100690008F5F8093E9029091EF02891710F010921A
:1006A000E9026091E90280E00E94ED02CE01DF9153
:1006B000CF910895EF92FF920F931F93CF93DF9303
:1006C000CDB7DEB7A0970FB6F894DEBF0FBECDBF93
:1006D0009E01275D3F4FF901419151919F0160E2D9
:1006E00070E0CE0101960E94A8147C0110E000E0A9
:1006F0000E151F05B8F4E1E0F0E0EC0FFD1FE00F70
:10070000F11F80810E943203080F191F892B51F0BD
:100710008091E8028111ECCF8091F00280171106E0
:1007200009F030F7C801A0960FB6F894DEBF0FBEEF
:10073000CDBFDF91CF911F910F91FF90EF90089562
:100740000F931F93CF93C82F60E00E94DE0760E0F5
:100750008C2F0E94A20761E08C2F0E94A20761E00B
:100760008C2F0E94DE0785E090E00E9433078C2FDB
:100770000E940C088C0160E08C2F0E94DE0760E074
:100780008C2F0E94A20781E090E00130110511F446
:1007900090E080E0919581959109CF911F910F9103
:1007A00008950E941A0261E08091D7020E94A20778
:1007B0008091D6028F3F41F061E00E94A20760E085
:1007C0008091D6020E94DE0761E08091D5020E94EE
:1007D000A20760E08091D5020E94DE0761E080916F
:1007E000D4020E94A20761E08091D3020E94A20776
:1007F00061E08091D2020E94A20761E08091D10263
:100800000E94A2078091D0028F3F89F09091CF0281
:10081000913041F490E00E94A003892B19F08EEFF3
:100820008093CF0261E08091D0020E94A20790E005
:1008300080E008950F931F93CF93DF93162F042F1B
:10084000962F653008F094E02091EB0221110CC046
:100850002091EC02211108C02091ED02211104C069
:100860002091EE02222331F02091F002222361F048
:10087000281751F01092EB0220E42093EC028093B1
:10088000ED02280F2093EE029093EF028093F00286
:1008900064E670E080E090E00E94FA061092F302B5
:1008A0000E94D103EC01892B09F051C08091EF0225
:1008B000823028F08091F30288608093F302002355
:1008C00039F0113029F48091F30284608093F302AF
:1008D00060E382E090E00E949D0265E070E080E0CD
:1008E00090E00E94FA0660E382E090E00E949D02A0
:1008F00061E070E080E090E00E94FA0660E382E050
:1009000090E00E949D0261E070E080E090E00E9433
:10091000FA068091F30284FD05C060E282E090E077
:100920000E949D028091F30280620E94C10284E0D5
:100930008093F2020E940E030E94EA0282E08093FA
:10094000F10286E00E94C102EC010E946D02CE011C
:10095000DF91CF911F910F9108959091F002911125
:1009600002C08093F0028091EF02811102C0609377
:10097000EF0280ED97E0A0E0B0E08093E402909376
:10098000E502A093E602B093E70286E290E0A0E0E1
:10099000B0E08093E0029093E102A093E202B09372
:1009A000E3021092EB021092EC021092ED02109210
:1009B000EE021092E80260E070E0CB010E94FD01BF
:1009C00040E06091EF028091F0020C941A04CF9302
:1009D000DF9300D0CDB7DEB783E090E00E94A00B9C
:1009E000BE016F5F7F4F82E00E949C0C898180FF77
:1009F0001DC01092FD021092FC021092FB02109298
:100A0000FA021092F9021092F8021092F702109274
:100A1000F6021092F5021092F40281E090E00E943A
:100A2000F30C61E070E083E00E94160C898181FF85
:100A3000D3CF83E10E943508909303038093020390
:100A40000E94940B6091020370910303811173C0A3
:100A5000072E000C880B990B0E943B1320915E011E
:100A600030915F0140916001509161010E94EB1350
:100A70006093FE027093FF02809300039093010342
:100A8000C090FE02D090FF02E0900003F0900103BE
:100A90006091FC027091FD02072E000C880B990BEF
:100AA0000E943B134B015C0126E636E646E650E425
:100AB000C701B6010E9491129B01AC01C501B401AE
:100AC0000E9420120E9403137093FD026093FC02A7
:100AD000683E23E0720784F02091FA023091FB0215
:100AE0002F5F3F4F3093FB022093FA02685E734002
:100AF0007093FD026093FC0220E030E0A901C70181
:100B0000B6010E948C12882361F08091F4029091CA
:100B1000F50201968C339105ECF49093F5028093E5
:100B2000F40282E090E00E94F30C61E070E083E068
:100B30000E94160C51CF072E000C880B990B0E94B7
:100B40003B1320915A0130915B0140915C0150911F
:100B50005D018CCF1092F5021092F4028091F602A2
:100B60009091F70201968C3391052CF49093F70243
:100B70008093F602D6CF1092F7021092F60280917F
:100B8000F8029091F90201969093F9028093F8028D
:100B9000C8CFCF93DF9300D0CDB7DEB703E812E024
:100BA00086EA682E82E0782E94E6E92EF12C2EEA71
:100BB000C22E22E0D22E32E9A32E32E0B32E4AE931
:100BC000842E42E0942E81E090E00E94A00BBE01B2
:100BD0006F5F7F4F83E00E949C0C898180FFF3CF81
:100BE0000E94940B60E081114EC088E00E94ED02EB
:100BF0008091F5028F938091F4028F938091F70298
:100C00008F938091F6028F938091F9028F93809158
:100C1000F8028F931F930F930E945A0361E080E0C4
:100C20000E94ED026091FE027091FF02809100032C
:100C3000909101030E9403137F936F93BF92AF9231
:100C40000E945A0361E088E00E94ED028091FC025C
:100C50009091FD02B7010E9458147F936F93809189
:100C6000FB028F938091FA028F939F928F920E9442
:100C70005A030FB6F894DEBF0FBECDBF81E090E0FF
:100C80000E94F30CA0CF88E00E94ED028091F50253
:100C90008F938091F4028F938091F7028F938091CC
:100CA000F6028F938091F9028F938091F8028F93CF
:100CB0001F930F930E945A0361E080E00E94ED02AF
:100CC0006091FE027091FF028091000390910103F8
:100CD0000E9403137F936F937F926F920E945A0337
:100CE00061E088E00E94ED028091FC029091FD029B
:100CF000B7010E9458147F936F938091FB028F93EA
:100D00008091FA028F93DF92CF92B1CF61E070E0D1
:100D100082E00C94160C1F920F920FB60F921124C2
:100D20002F933F938F939F93AF93BF93809105032E
:100D300090910603A0910703B0910803309104033A
:100D400023E0230F2D3758F50196A11DB11D2093E7
:100D500004038093050390930603A0930703B093C5
:100D600008038091090390910A03A0910B03B091AD
:100D70000C030196A11DB11D8093090390930A03F2
:100D8000A0930B03B0930C03BF91AF919F918F91F0
:100D90003F912F910F900FBE0F901F90189526E84E
:100DA000230F0296A11DB11DD2CF3FB7F8948091B9
:100DB000090390910A03A0910B03B0910C0326B58F
:100DC000A89B05C02F3F19F00196A11DB11D3FBF83
:100DD000BA2FA92F982F8827BC01CD01620F711D52
:100DE000811D911D42E0660F771F881F991F4A954C
:100DF000D1F708958F929F92AF92BF92CF92DF92D8
:100E0000EF92FF926B017C010E94D5064B015C01C1
:100E1000C114D104E104F104E9F00E94A50A0E9482
:100E2000D506681979098A099B09683E73408105CE
:100E3000910570F321E0C21AD108E108F10888EEAB
:100E4000880E83E0981EA11CB11CC114D104E104DA
:100E5000F10429F7FF90EF90DF90CF90BF90AF9013
:100E60009F908F9008958230910538F0880F991FD8
:100E7000880F991F05970197F1F70895789484B525
:100E8000826084BD84B5816084BD85B5826085BD86
:100E900085B5816085BDEEE6F0E08081816080836C
:100EA000E1E8F0E01082808182608083808181604F
:100EB0008083E0E8F0E0808181608083E1EBF0E016
:100EC000808184608083E0EBF0E0808181608083BA
:100ED000EAE7F0E0808184608083808182608083A3
:100EE0008081816080838081806880831092C100CE
:100EF0000895833081F028F4813099F08230A9F090
:100F000008958730A9F08830C9F08430B1F4809119
:100F100080008F7D03C0809180008F778093800058
:100F2000089584B58F7784BD089584B58F7DFBCFF8
:100F30008091B0008F778093B00008958091B000C9
:100F40008F7DF9CFCF93DF9390E0FC01E458FF4F02
:100F5000249180579F4FFC0184918823C9F090E031
:100F6000880F991FFC01E854FF4FA591B491FC0133
:100F7000E255FF4FC591D49161110DC09FB7F89410
:100F80008C91209582238C938881282328839FBF6E
:100F9000DF91CF910895623051F49FB7F8943C915E
:100FA000822F809583238C93E8812E2BEFCF8FB7F0
:100FB000F894EC912E2B2C938FBFEACF1F93CF93F5
:100FC000DF93282F30E0F901E859FF4F8491F901B0
:100FD000E458FF4FD491F901E057FF4FC491CC235F
:100FE000A9F0162F81110E947907EC2FF0E0EE0F87
:100FF000FF1FE255FF4FA591B4918FB7F894EC9184
:10100000111108C0D095DE23DC938FBFDF91CF9103
:101010001F910895DE2BF8CFCF93DF93282F30E078
:10102000F901E859FF4F8491F901E458FF4FD49139
:10103000F901E057FF4FC491CC23A1F081110E9428
:101040007907EC2FF0E0EE0FFF1FEC55FF4FA59155
:10105000B491EC91ED2381E090E009F480E0DF9120
:10106000CF91089580E090E0FACF8E3008F08E5056
:101070002091620190E4299F900111248770822BB6
:1010800080937C0080917A00806480937A008091C4
:101090007A0086FDFCCF80917800909179000895C8
:1010A0001F93CF93DF93182FEB0161E00E94A207FB
:1010B000209739F460E0812FDF91CF911F910C943C
:1010C000DE07CF3FD10511F461E0F5CFE12FF0E06D
:1010D000E859FF4FE491E33031F140F4E130B1F0F1
:1010E000E230E1F0C038D1057CF7E4CFE73029F1F8
:1010F000E83059F1E430B1F780918000806280934C
:101100008000D0938B00C0938A0004C084B58068AF
:1011100084BDC7BDDF91CF911F91089584B58062D2
:1011200084BDC8BDF7CF8091800080688093800027
:10113000D0938900C0938800EDCF8091B000806883
:101140008093B000C093B300E5CF8091B00080627F
:101150008093B000C093B400DDCFFC01918D228D4F
:10116000892F90E0805C9F4F821B91098F73992794
:101170000895FC01918D828D981731F0828DE80FD2
:10118000F11D858D90E008958FEF9FEF0895FC018C
:10119000918D828D981761F0A28DAE0FBF2FB11D7A
:1011A0005D968C91928D9F5F9F73928F90E00895D2
:1011B0008FEF9FEF0895FC01538D448D252F30E074
:1011C000842F90E0821B930B541710F0CF96089554
:1011D0000197089581E49AE0892B49F080E090E03E
:1011E000892B29F00E94410A81110C940000089576
:1011F000FC01A48DA80FB92FB11DA35ABF4F2C918C
:10120000848D90E001968F739927848FA689B78982
:101210002C93A089B1898C91837080648C93938D79
:10122000848D981306C00288F389E02D80818F7D1C
:1012300080830895CF93DF93EC01888D8823B9F0E4
:10124000AA89BB89E889F9898C9185FD03C08081D1
:1012500086FD0DC00FB607FCF7CF8C9185FFF2CF4E
:10126000808185FFEDCFCE010E94F808E9CFDF91A4
:10127000CF910895EF92FF920F931F93CF93DF9337
:10128000EC0181E0888F9B8D8C8D98131AC0E889C2
:10129000F989808185FF15C09FB7F894EE89FF8991
:1012A0006083E889F98980818370806480839FBF2F
:1012B00081E090E0DF91CF911F910F91FF90EF902F
:1012C0000895F62E0B8D10E00F5F1F4F0F7311273F
:1012D000E02E8C8D8E110CC00FB607FCFACFE8897A
:1012E000F989808185FFF5CFCE010E94F808F1CF02
:1012F000EB8DEC0FFD2FF11DE35AFF4FF0829FB7EE
:10130000F8940B8FEA89FB8980818062CFCFCF92DE
:10131000DF92EF92FF921F93CF93DF93EC016A016C
:101320007B01122FE889F98982E08083C11481EE64
:10133000D806E104F104A1F060E079E08DE390E0EB
:10134000A70196010E946C142150310941095109ED
:101350005695479537952795211580E1380798F0E0
:10136000E889F989108260E874E88EE190E0A701CD
:1013700096010E946C14215031094109510956957A
:10138000479537952795EC85FD853083EE85FF855C
:101390002083188EEC89FD891083EA89FB8980817E
:1013A00080618083EA89FB89808188608083EA8903
:1013B000FB89808180688083EA89FB8980818F7DB9
:1013C0008083DF91CF911F91FF90EF90DF90CF90BE
:1013D00008951F920F920FB60F9211242F938F939F
:1013E0009F93EF93FF93E0911D03F0911E03808183
:1013F000E0912303F091240382FD1BC09081809132
:1014000026038F5F8F7320912703821741F0E091AD
:101410002603F0E0E35FFC4F958F80932603FF9156
:10142000EF919F918F912F910F900FBE0F901F9072
:1014300018958081F4CF1F920F920FB60F9211244E
:101440002F933F934F935F936F937F938F939F93CC
:10145000AF93BF93EF93FF938DE093E00E94F80862
:10146000FF91EF91BF91AF919F918F917F916F917C
:101470005F914F913F912F910F900FBE0F901F9052
:1014800018958DE093E00E94AD0821E0892B09F4C6
:1014900020E0822F0895EDE0F3E01382128288EEBF
:1014A00093E0A0E0B0E084839583A683B7838EEBBE
:1014B00092E09183808385EC90E09587848784EC2B
:1014C00090E09787868780EC90E0918B808B81EC11
:1014D00090E0938B828B82EC90E0958B848B86ECF2
:1014E00090E0978B868B118E128E138E148E08953A
:1014F000AF92BF92CF92DF92EF92FF920F931F9322
:10150000CF93DF936C017B018B01040F151FEB015F
:101510005E01AE18BF08C017D10759F06991D60116
:10152000ED91FC910190F081E02DC6010995892B88
:1015300079F7C501DF91CF911F910F91FF90EF9047
:10154000DF90CF90BF90AF9008950895FC018785FC
:1015500081110BC08089811108C021E090E0818950
:10156000811101C020E0822F089581E090E008956C
:101570004F925F926F927F928F929F92AF92BF92A3
:10158000CF92DF92EF92FF920F931F93CF93DF934F
:1015900000D0CDB7DEB70091CA011091CB019FB743
:1015A000F894D80118962D913C91232B09F0A6C0F0
:1015B000882E8AEE9FE09A8389830E943210A09041
:1015C000CE01B090CF0181E090E0F8019187808753
:1015D00082860E94B901E090D601F090D701D12C0B
:1015E000C12CF4E08F9E40011124E80CF91C370156
:1015F00082E0680E711C46E0542EF30180819181D7
:10160000C816D906E0F1E090D201F090D30138017C
:10161000F2E06F0E711CD12CC12CE80CF91C2701D3
:1016200082E0480E511C88248394912CF201808121
:101630009181C816D906E8F1D80118968D919C9130
:101640001997019731F482E090E019969C938E935C
:101650001897F80180859185029741F4D50112967B
:101660006D917C91AB01C5010E94D400F801808589
:101670009185029709F4789490E080E042C0D70108
:10168000ED91FC915C9CC0015D9C900D1124E80FD4
:10169000F91FA081B1812481358142815381BD012F
:1016A00012968D919C910E94D70FBFEFCB1ADB0A47
:1016B000A4CFD701ED91FC91C601880F991FE80FC7
:1016C000F91F40815181DA011496ED91FC918081DE
:1016D0008F5F808393828282F80164817581DB0150
:1016E0008D919C911197958384831D921C92C301C7
:1016F0000E94270EBFEFCB1ADB0A98CF9FBF81E075
:1017000090E00F900F90DF91CF911F910F91FF907C
:10171000EF90DF90CF90BF90AF909F908F907F9091
:101720006F905F904F900895E091CA01F091CB01C6
:1017300080859185892B11F0828508958FEF08951A
:101740009F92AF92BF92CF92DF92EF92FF920F9350
:101750001F93CF93DF9300D0CDB7DEB75C01E0904D
:10176000CA01F090CB01C7010E94A60A892B09F09B
:1017700044C0D701CD90DC90F601878190858230FE
:10178000910508F04AC004811581D80114962D9165
:101790003C911597232B09F043C0019709F043C0F2
:1017A00018968D919C918A219B21892B19F59FB6C2
:1017B000F894F801B782A682AE014F5F5F4F6AECE2
:1017C00071E084EB91E00E94C20EE981FA81D701B9
:1017D00014962D913C911597318320831596FC9397
:1017E000EE931497BC01C6010E943E10F8011782C7
:1017F00016829FBE90E080E002C08CE090E00F90E7
:101800000F90DF91CF911F910F91FF90EF90DF909C
:10181000CF90BF90AF909F90089582E090E0EFCF7F
:1018200086E090E0ECCF81E090E0E9CFDF92EF92AC
:10183000FF920F931F93CF93DF93C82F7B010091EB
:10184000CA011091CB01C8010E94A60A892B09F098
:101850006AC0D801ED91FC9187819085039708F0CB
:1018600065C08C2F90E02091BA013091BB018217A6
:10187000930708F05EC02091B6013091B701880F40
:10188000991F820F931FEC01A881B9811496ED91E5
:10189000FC911597DFB6F89417968D919C91189747
:1018A000019759F0DFBE81E090E0DF91CF911F9169
:1018B0000F91FF90EF90DF900895228133812115E1
:1018C000310521F4DFBE87E090E0EFCF8085918580
:1018D0008E299F299187808786819781E822F92226
:1018E000EF28E9F023303105D1F4E801EC81FD81E6
:1018F000808191819D838C8311821082B383A28326
:10190000AF016AEC71E084EB91E00E94E70E892B55
:1019100031F06AEC71E084EB91E00E94960FDFBE3B
:1019200090E080E0C2CF8CE090E0BFCF82E090E01A
:10193000BCCF83E090E0B9CFEF92FF920F931F935B
:10194000CF93C82F8B01E090CA01F090CB01C70163
:101950000E94A60A892BC1F5D701ED91FC918781E0
:1019600090850397A0F58C2F90E02091BA013091DB
:10197000BB018217930770F52091B6013091B70132
:10198000880F991F820F931FDC01ED91FC918781D5
:101990009085019711F50480F581E02D8281938176
:1019A000892BF1F08EE090E00115110539F080856A
:1019B0009185F8019183808390E080E0CF911F9121
:1019C0000F91FF90EF9008958CE090E0F7CF82E0C8
:1019D00090E0F4CF83E090E0F1CF81E090E0EECFB3
:1019E00087E090E0EBCF0F931F93CF93DF93EC0151
:1019F0000091CA011091CB01C8010E94A60A892B4F
:101A0000E1F4D801ED91FC918781908582309105B8
:101A1000B8F40197C1F40480F581E02DC095D0950C
:101A2000808591858C239D239187808790E080E03D
:101A3000DF91CF911F910F9108958CE090E0F8CF46
:101A400082E090E0F5CF81E090E0F2CFCF93DF939A
:101A500000D0CDB7DEB7AE014F5F5F4F6AEC71E0EB
:101A600084EB91E00E94190FBC0189819A810E9448
:101A700059100F900F90DF91CF9108950895EC01C8
:101A8000EC81FD8181818F3F09F07894E985FA85A9
:101A900009958FB7F89466E27DE08A819B810E9468
:101AA000F4000F931F93CF93DF93CFB7F8946AECB2
:101AB00071E084EB91E00E94960FCFBF0091CA01C4
:101AC0001091CB01C091CC01D091CD01F80180855E
:101AD00091858230910551F08091CE019091CF0196
:101AE000DF91CF911F910F910C946F10209789F384
:101AF000FE010995EBCF0F931F93CF93DF93EC017A
:101B0000A881B981EB01E881F9811696CD91DC912C
:101B100017972097C1F18A819B81309709F43FC0C4
:101B2000EC010C811D8122813381E9014C815D81B1
:101B3000E8013981EA012981321788F522E030E095
:101B4000E8013B832A8320813181EB01398328839B
:101B5000C281D3812C813D8116964D915C9117975E
:101B6000518340831796FC93EE931697CD93DC93A5
:101B70004C85F9015181541708F44183DF91CF91CD
:101B80001F910F910895309751F0EC018C819D8148
:101B9000EC014C815D8122E030E0EA01D2CF90E09F
:101BA00080E0ECCFCF92DF92EF92FF920F931F93E2
:101BB000CF93DF93EB01AA81BB811496ED91FC9149
:101BC00015974115510501F12281338122303105EC
:101BD000D8F01B962C91DC01ED91FC91B0E0A0E0D7
:101BE0003097A1F4109769F16D937C9390E080E0B9
:101BF000EB01F983E883DF91CF911F910F91FF9063
:101C0000EF90DF90CF9008952181E5CF028113817D
:101C1000E801CC80DD804115510581F0E601EA80C4
:101C2000FB80D2E0ED16F10448F0E8013B85321765
:101C3000C8F2DF010190F081E02DD2CFE6013981B9
:101C4000F6CFDC016D937C9381E090E0D1CFFB0176
:101C50005383428341E050E00C94D20DEF92FF9207
:101C60000F931F93CF93DF938C01FC01C081D1812F
:101C7000EE80FF80F701808191819F838E83C80170
:101C80000E947B0D892B41F4EE81FF81309761F03A
:101C90008281938199838883C701DF91CF911F91BE
:101CA0000F91FF90EF900895F80184819581F2CF14
:101CB000CF92DF92EF92FF920F931F93CF93DF9318
:101CC000DA011496CD91DC91159798811D968C912F
:101CD000981708F054C0DB01ED91FC91008111814F
:101CE000D8011496ED90FC909F5F9883C480D580B6
:101CF000D6016D917C91232B69F1D70111969C91AE
:101D000011978981981730F57583648382E090E09C
:101D100013969C938E931297D60113965C934E93D1
:101D20001297868197818D939C93D782C682518327
:101D3000408319861886BA01C8010E943E1090E0BF
:101D400080E0DF91CF911F910F91FF90EF90DF9096
:101D5000CF9008958A819B81892B31F481E090E0B6
:101D60009B838A831986188675836483D6011D92A6
:101D70001C92B601CF0102960E94270EE0CF84E0AC
:101D800090E0DFCFEF92FF920F931F93CF93DF93FB
:101D9000CB017A01DB01CD91DC91FE010191119122
:101DA000BF010E942E0ED7018D939C93D8011496EB
:101DB000ED91FC9183E090E0938382838881998107
:101DC000DF91CF911F910F91FF90EF9008950F93A6
:101DD0001F93CF93DF93FA01DB010D911C91428198
:101DE0005381DA011496CD91DC91159782E090E051
:101DF0009B838A831B968C918983BF01C8010296BD
:101E00000E94270E019791F4D801ED91FC91048076
:101E1000F581E02D81E090E039812181231708F0E0
:101E200080E0DF91CF911F910F91089580E090E0C5
:101E3000F8CFAF92BF92CF92DF92EF92FF920F93C3
:101E40001F93CF93DF935B01DB01CD91DC91FE010A
:101E5000019111916F01D8011496ED90FC90FA0157
:101E600011830083D70112968D919C910497A9F557
:101E7000B601C5010E942E0EAC0188819981081718
:101E8000190731F1D8011496ED91FC9115971B9625
:101E90002C912183208121502083211114C0138291
:101EA00012822C813D81DA012D933C935D834C831A
:101EB000DF91CF911F910F91FF90EF90DF90CF9026
:101EC000BF90AF90089521E030E033832283E9CFC3
:101ED000F701208121502083E4CF6E817F81FB01B7
:101EE000808191819F838E83D8011B968C91F7010D
:101EF000818381E090E0938382838081813011F43B
:101F000011861086A801C6010E94270EB601C501E0
:101F10000E947B0D892B39F4EE81FF8182819381B0
:101F200099838883C5CF88819981C2CFCF93DF936E
:101F3000CB01FB01C081D181BE016E5F7F4F0E944A
:101F40007B0D009749F0688179810E943E1081E005
:101F500090E0DF91CF91089590E080E0FACFCF93A9
:101F6000DF93DB01ED91FC918081918126813781A6
:101F7000EC01AC81BD8162E070E013967C936E93BE
:101F8000129751834083A481B5816D917C91119703
:101F900075836483B783A68313965C934E931297DD
:101FA0002D933C93BA01DF91CF910C943E10DB014D
:101FB000ED91FC91A481B581AB2B39F43783268355
:101FC0000E94D51090E080E0089587E090E00895A9
:101FD000F894FFCFE0ED08958F939F9381E00E94E6
:101FE000FC0F9F918F9118958F939F9380E00E9493
:101FF000FC0F9F918F9118951F920F920FB60F9221
:1020000011242F933F934F935F936F937F93AF93DD
:10201000BF93EF93FF93E091B601F091B70190E089
:10202000880F991FE80FF91F40815181DA0114963A
:10203000ED91FC9180818F5F80836AEC71E084EB8D
:1020400091E00E94AF0FFF91EF91BF91AF917F910F
:102050006F915F914F913F912F910F900FBE0F9015
:102060001F90089568EE73E080E090E00C94C11139
:102070008091D0019091D1010C94F510FB01A481C5
:10208000B58112962D913C91139744E050E0139640
:102090005C934E931297DC0112964D915C91628194
:1020A0007381CF012230310511F40C948C000C9413
:1020B000D400CB01DB011496ED91FC9115972281A0
:1020C000338144E050E05383428312966D917C91BA
:1020D0002230310511F40C94AC000C94CC00DC01DE
:1020E00012966D917C911397ED91FC9140815181F5
:1020F000DB01ED91FC91228933892115310519F01D
:102100004217530729F4DB01ED93FC930C94AC00C8
:10211000F901F1CFEF92FF920F931F93CF93DF93CB
:10212000DC018D919C91DC01ED91FC91119712964F
:102130000D911C91DB01CD91DC9121E030E03D83DC
:102140002C835B834A8330E020E03097E1F0A0816C
:10215000B1811296ED90FC9013970E151F0568F44F
:102160004E155F0518F40417150768F0FC901196DA
:10217000AC919F01EF2DFA2FE8CF0417150718F047
:102180004E155F0598F72115310519F0D9018D918C
:102190009C91DC016D937C93F983E883DF91CF916F
:1021A0001F910F91FF90EF900895CF93DF93DC0183
:1021B0001296ED91FC9113970D90BC91A02D129663
:1021C0002D913C91DF01A41BB50BA217B30730F092
:1021D000420F531FDF91CF910C948A104150510947
:1021E000420F531F4E1B5F0BF5CF8F929F92AF9202
:1021F000BF92CF92DF92EF92FF920F931F93CF93F4
:10220000DF93DC01ED90FC901197F701228133817F
:1022100012964D915C912417350708F460C0138223
:10222000128230E020E0F701C081D181209709F4CB
:1022300049C0A881B98112964D915C91421753070C
:1022400009F040C0DE012D913C91F901A081B181DE
:10225000109749F06D917C911197FB016281738118
:102260004617570781F38C01F90111821082F7019B
:10227000B183A083C090CA01D090CB01E880F980DF
:10228000D7019C9011968C9011971696AD90BC90AA
:102290008C859D858130910591F130F182309105D9
:1022A00009F462C0039709F464C0A114B10409F4ED
:1022B00064C0A501BE01C8010E94D510C92DD82D4A
:1022C0002097E1F6DF91CF911F910F91FF90EF9052
:1022D000DF90CF90BF90AF909F908F9008952F5F29
:1022E0003F4F338322839FCF4E815F8130E020E0D8
:1022F0006AEC71E084EB91E00E94580ED6CF6E81BB
:102300007F81DB011496ED91FC914281538141154F
:10231000510559F28A859B8520853185282B392BDB
:10232000318720872681378182239323892B09F4E3
:10233000BCCF4330510509F0B8CFD6011496ED91CA
:10234000FC9115978081918115969C938E9314979B
:102350001182108273836283AF016AEC71E084EBB7
:1023600091E00E94E70EA1CF888599850E94F51023
:102370009CCFEC81FD81099598CFF70115821482DD
:102380009DCF1092810010928000109282001092D6
:10239000850010928400611520E172078105910586
:1023A000A0F4E4E0660F771FEA95E1F76150710948
:1023B00081E092E096BB90936F00709389006093E8
:1023C00088008860809381000895611520E8720775
:1023D0008105910530F4660F771F6150710982E025
:1023E000E8CF6C3F2FEF720723E08207910558F486
:1023F00042E096958795779567954A95D1F7615014
:10240000710983E0D6CF6115710520E1820791053E
:1024100058F434E096958795779567953A95D1F776
:102420006150710984E0C5CF26E096958795779530
:1024300067952A95D1F76150710985E0BACF505858
:10244000BB27AA270E9437120C94B1130E94A31332
:1024500038F00E94AA1320F039F49F3F19F426F4B3
:102460000C94A0130EF4E095E7FB0C949A13E92F5B
:102470000E94C21358F3BA176207730784079507BF
:1024800020F079F4A6F50C94E4130EF4E0950B2EED
:10249000BA2FA02D0B01B90190010C01CA01A001B6
:1024A0001124FF27591B99F0593F50F4503E68F111
:1024B0001A16F040A22F232F342F4427585FF3CF52
:1024C000469537952795A795F0405395C9F77EF423
:1024D0001F16BA0B620B730B840BBAF09150A1F06C
:1024E000FF0FBB1F661F771F881FC2F70EC0BA0FF2
:1024F000621F731F841F48F4879577956795B7957A
:10250000F7959E3F08F0B0CF9395880F08F0992774
:10251000EE0F9795879508950E94761308F481E051
:1025200008950E94A5120C94B1130E94AA1358F0AA
:102530000E94A31340F029F45F3F29F00C949A13F2
:1025400051110C94E5130C94A0130E94C21368F36C
:102550009923B1F3552391F3951B550BBB27AA275C
:1025600062177307840738F09F5F5F4F220F331F96
:10257000441FAA1FA9F335D00E2E3AF0E0E832D05E
:1025800091505040E695001CCAF72BD0FE2F29D061
:10259000660F771F881FBB1F261737074807AB0733
:1025A000B0E809F0BB0B802DBF01FF2793585F4FA8
:1025B0003AF09E3F510578F00C949A130C94E51371
:1025C0005F3FE4F3983ED4F3869577956795B7958A
:1025D000F7959F5FC9F7880F911D9695879597F995
:1025E0000895E1E0660F771F881FBB1F621773070E
:1025F0008407BA0720F0621B730B840BBA0BEE1F23
:1026000088F7E09508950E940A136894B1110C941C
:10261000E51308950E94CA1388F09F5798F0B92FC8
:102620009927B751B0F0E1F0660F771F881F991F07
:102630001AF0BA95C9F714C0B13091F00E94E413B2
:10264000B1E008950C94E413672F782F8827B85FC2
:1026500039F0B93FCCF3869577956795B395D9F75F
:102660003EF490958095709561957F4F8F4F9F4F69
:102670000895E89409C097FB3EF490958095709575
:1026800061957F4F8F4F9F4F9923A9F0F92F96E9BE
:10269000BB279395F695879577956795B795F11133
:1026A000F8CFFAF4BB0F11F460FF1BC06F5F7F4FD0
:1026B0008F4F9F4F16C0882311F096E911C07723E2
:1026C00021F09EE8872F762F05C0662371F096E8EB
:1026D000862F70E060E02AF09A95660F771F881FBA
:1026E000DAF7880F9695879597F90895990F00085E
:1026F000550FAA0BE0E8FEEF16161706E807F907D4
:10270000C0F012161306E407F50798F0621B730B6E
:10271000840B950B39F40A2661F0232B242B252BEF
:1027200021F408950A2609F4A140A6958FEF811D92
:10273000811D089597F99F6780E870E060E0089533
:102740009FEF80EC089500240A94161617061806C9
:102750000906089500240A941216130614060506A5
:102760000895092E0394000C11F4882352F0BB0F36
:1027700040F4BF2B11F460FF04C06F5F7F4F8F4F99
:102780009F4F089557FD9058440F551F59F05F3FD4
:1027900071F04795880F97FB991F61F09F3F79F083
:1027A00087950895121613061406551FF2CF469505
:1027B000F1DF08C0161617061806991FF1CF869587
:1027C0007105610508940895E894BB27662777276B
:1027D000CB0197F908950E94FE130C94B1130E9447
:1027E000A31338F00E94AA1320F0952311F00C9443
:1027F0009A130C94A01311240C94E5130E94C21395
:1028000070F3959FC1F3950F50E0551F629FF00143
:10281000729FBB27F00DB11D639FAA27F00DB11D5C
:10282000AA1F649F6627B00DA11D661F829F2227E5
:10283000B00DA11D621F739FB00DA11D621F839F6C
:10284000A00D611D221F749F3327A00D611D231F42
:10285000849F600D211D822F762F6A2F11249F5790
:1028600050409AF0F1F088234AF0EE0FFF1FBB1F93
:10287000661F771F881F91505040A9F79E3F510552
:1028800080F00C949A130C94E5135F3FE4F3983EA8
:10289000D4F3869577956795B795F795E7959F5FFC
:1028A000C1F7FE2B880F911D9695879597F908958E
:1028B00097FB072E16F4009407D077FD09D00E94ED
:1028C0008E1407FC05D03EF4909581959F4F089596
:1028D000709561957F4F0895A1E21A2EAA1BBB1B2C
:1028E000FD010DC0AA1FBB1FEE1FFF1FA217B307DC
:1028F000E407F50720F0A21BB30BE40BF50B661FF2
:10290000771F881F991F1A9469F7609570958095B5
:1029100090959B01AC01BD01CF010895AA1BBB1B83
:1029200051E107C0AA1FBB1FA617B70710F0A61BCF
:10293000B70B881F991F5A95A9F780959095BC01F0
:10294000CD010895EE0FFF1F0590F491E02D09943D
:10295000AEE0B0E0EEEAF4E10C9460178C01FA010D
:1029600086E08C831A83098377FF02C060E070E8F9
:10297000615071097E836D83A901BF01CE0101966B
:102980000E94D4144D815E8157FD0AC02F81388585
:10299000421753070CF49A01020F131FF80110821B
:1029A0002E96E4E00C947C17ABE0B0E0EAEDF4E1A5
:1029B0000C9452177C013B018A01FC01178216829C
:1029C000838181FFC8C1CE0101965C01F70193812B
:1029D000F30193FD859193FF81913F01882309F4D1
:1029E00053C1853239F493FD859193FF81913F0165
:1029F000853229F4B70190E00E94C416E7CF912CEC
:102A0000212C312CFFE1F31538F08B3211F190F4C9
:102A1000803209F1833229F137FC3CC020ED280FC8
:102A20002A3050F536FE20C08AE0989E200D1124F1
:102A3000922E06C08D3291F0803371F7689430F891
:102A4000F30193FD859193FF81913F018111DACFCD
:102A500021C0689431F8689432F8F2CF689433F862
:102A6000EFCF689434F8ECCFEAE02E9E200D1124CD
:102A7000222E689435F8E4CF8E3229F436FC04C156
:102A8000689436F8DDCF8C3619F4689437F8D8CFCF
:102A90008836B1F2982F9F7D95549330E0F08336BD
:102AA000A1F18337C1F1833509F063C02801F2E059
:102AB0004F0E511CF801C080D180692D70E036FCAA
:102AC00002C06FEF7FEFC6010E94AE164C01689402
:102AD00037F882010AC00C5F1F4FFFE3F983882497
:102AE0008394912C6501E89437F833FE2DC0522C65
:102AF0008114910471F5552009F468CFB70180E283
:102B000090E00E94C4165A94F6CFF8018081898320
:102B10000E5F1F4FE4CF2801F2E04F0E511CF80169
:102B2000C080D180692D70E036FC02C06FEF7FEF6E
:102B3000C6010E94B9164C018201D5CFB70180E2CF
:102B400090E00E94C4162A942814190409F0B0F7E2
:102B5000CECFF60137FC859137FE81916F01B70129
:102B600090E00E94C41651105A94F1E08F1A910817
:102B7000BFCF843619F0893609F077C0F80137FEE7
:102B80006BC060817181828193810C5F1F4FF32D37
:102B9000FF763F2E97FF09C09095809570956195BF
:102BA0007F4F8F4F9F4F689437F82AE030E0A501A0
:102BB0000E94F416C82ECA188C2C432C36FE0CC06A
:102BC000E89440F8C91440F434FE05C032FC03C058
:102BD000F32DFE7E4F2E892C44FE95C0FE01EC0D98
:102BE000F11D8081803309F087C0242D297E422E7B
:102BF000842D8870582E43FC95C040FE8FC09C2CBD
:102C0000821418F42C0C922C981844FE91C0B70131
:102C100080E390E00E94C41642FE09C088E790E07D
:102C200041FE02C088E590E0B7010E94C416C914B5
:102C300008F48AC0CA94D12C9FEFC91AD90ACA0CC9
:102C4000DB1CF60182916F01B70190E00E94C4166F
:102C5000AC14BD04B1F74FCF60817181072E000C19
:102C6000880B990B0E5F1F4F92CFD32CE894D4F8AA
:102C70002AE030E0853739F1232D297FD22E8F3697
:102C800001F148F48835A9F0F701868197812B96E8
:102C9000E2E10C946E17803749F08837A9F7D4FE2B
:102CA00002C06894D2F820E130E00DC06894D4F8F6
:102CB000F6CF34FE03C0822F8660D82E20E132E0AA
:102CC00002C028E030E0F801D7FE0FC060817181BA
:102CD000828193810C5F1F4FA5010E94F416C82EBC
:102CE000CA183D2CE89437F867CF6081718190E075
:102CF00080E00E5F1F4FF0CF42FC02C0839478CF7C
:102D00008394839475CF842D867809F471CFF6CFA0
:102D1000B70180E290E00E94C41683948214C0F34D
:102D2000512C73CF522C5818821408F46ECFF8CF60
:102D3000842D867809F47BCF8BE241FE80E247FC4C
:102D40008DE2B70190E071CFB70180E390E00E947F
:102D5000C4169A946CCF8FEF9FEF99CFFC0105902A
:102D6000615070400110D8F7809590958E0F9F1F8D
:102D70000895FC016150704001900110D8F78095D2
:102D800090958E0F9F1F08950F931F93CF93DF93FE
:102D9000182F092FEB018B8181FD09C01FEF0FEF69
:102DA000812F902FDF91CF911F910F91089582FF76
:102DB00014C02E813F818C819D81281739073CF4F6
:102DC000E881F981CF0101969983888310838E81F0
:102DD0009F8101969F838E83E3CFE885F985812FBC
:102DE0000995892BA1F3DACFFA01AA27283051F1EE
:102DF000203181F1E8946F936E7F6E5F7F4F8F4F2C
:102E00009F4FAF4FB1E03ED0B4E03CD0670F781F8A
:102E1000891F9A1FA11D680F791F8A1F911DA11D6F
:102E20006A0F711D811D911DA11D20D009F46894A8
:102E30003F912AE0269F11243019305D3193DEF650
:102E4000CF010895462F4770405D4193B3E00FD006
:102E5000C9F7F6CF462F4F70405D4A3318F0495DF1
:102E600031FD4052419302D0A9F7EACFB4E0A695D4
:102E70009795879577956795BA95C9F700976105F6
:102E8000710508959B01AC010A2E0694579547954C
:102E900037952795BA95C9F7620F731F841F951F41
:102EA000A01D08952F923F924F925F926F927F9252
:102EB0008F929F92AF92BF92CF92DF92EF92FF924A
:102EC0000F931F93CF93DF93CDB7DEB7CA1BDB0BF6
:102ED0000FB6F894DEBF0FBECDBF09942A8839889B
:102EE00048885F846E847D848C849B84AA84B984A2
:102EF000C884DF80EE80FD800C811B81AA81B981AE
:102F0000CE0FD11D0FB6F894DEBF0FBECDBFED01C1
:062F10000895F894FFCFC4
:102F160069020000120100000000FF00000000002E
:102F26000000160100001A0100001E01000000004A
:102F3600000000800000000000000000008000008B
:102F46000000000000000002000000000000000079
:102F56000001000000000000000001000400000065
:102F6600000000002A04BB040000E3A51B3E48E164
:102F76007A3E0154657374204661696C656421214B
:102F8600212C206C696E653A313630200D0A0057C7
:102F9600454C434F4D45005354415254494E47000A
:102FA600554E49542053455420544F3A004B494CF2
:102FB6004F4D4554455253004D494C4553005445D9
:102FC600414D3800AA03270212010500040022021F
:102FD600010008020100F80101000001FE0069027B
:102FE6000A0212020300DA010300F2010100EC01F9
:102FF6000100E6010100FA01E803E803FA01E8032B
:10300600E803FA01E803E803FA012B040A020000C8
:103016004D020000020001000A023304FFFF010016
:1030260001001E02020000000000000000004D0228
:103036005B02240237040231023F024D025B026941
:10304600027F0258012201000200381080FF017F32
:103056000258012C01010200860680800177025485
:10306600013601020100E704027F017B025601409E
:1030760001030100C9050101017F0258014A01044B
:103086000300510D000001AB0380003C04800000EA
:10309600000000253032643A253032643A25303259
:1030A6006400253033646B706800253034642E2547
:1030B6003031646B6D00253033646D7068002530E7
:1030C60034642E253031646D6900000000003A0931
:0C30D600780ADB081A09AD08C708B90821
:00000001FF
